{
  "_format": "hh-sol-artifact-1",
  "contractName": "AVAXGods",
  "sourceName": "contracts/AvaxGods.sol",
  "abi": [
    {
      "inputs": [
        {
          "internalType": "string",
          "name": "_metadataURI",
          "type": "string"
        }
      ],
      "stateMutability": "nonpayable",
      "type": "constructor"
    },
    {
      "anonymous": false,
      "inputs": [
        {
          "indexed": true,
          "internalType": "address",
          "name": "account",
          "type": "address"
        },
        {
          "indexed": true,
          "internalType": "address",
          "name": "operator",
          "type": "address"
        },
        {
          "indexed": false,
          "internalType": "bool",
          "name": "approved",
          "type": "bool"
        }
      ],
      "name": "ApprovalForAll",
      "type": "event"
    },
    {
      "anonymous": false,
      "inputs": [
        {
          "indexed": false,
          "internalType": "string",
          "name": "battleName",
          "type": "string"
        },
        {
          "indexed": true,
          "internalType": "address",
          "name": "winner",
          "type": "address"
        },
        {
          "indexed": true,
          "internalType": "address",
          "name": "loser",
          "type": "address"
        }
      ],
      "name": "BattleEnded",
      "type": "event"
    },
    {
      "anonymous": false,
      "inputs": [
        {
          "indexed": true,
          "internalType": "string",
          "name": "battleName",
          "type": "string"
        },
        {
          "indexed": true,
          "internalType": "bool",
          "name": "isFirstMove",
          "type": "bool"
        }
      ],
      "name": "BattleMove",
      "type": "event"
    },
    {
      "anonymous": false,
      "inputs": [
        {
          "indexed": false,
          "internalType": "string",
          "name": "battleName",
          "type": "string"
        },
        {
          "indexed": true,
          "internalType": "address",
          "name": "player1",
          "type": "address"
        },
        {
          "indexed": true,
          "internalType": "address",
          "name": "player2",
          "type": "address"
        }
      ],
      "name": "NewBattle",
      "type": "event"
    },
    {
      "anonymous": false,
      "inputs": [
        {
          "indexed": true,
          "internalType": "address",
          "name": "owner",
          "type": "address"
        },
        {
          "indexed": false,
          "internalType": "uint256",
          "name": "id",
          "type": "uint256"
        },
        {
          "indexed": false,
          "internalType": "uint256",
          "name": "attackStrength",
          "type": "uint256"
        },
        {
          "indexed": false,
          "internalType": "uint256",
          "name": "defenseStrength",
          "type": "uint256"
        }
      ],
      "name": "NewGameToken",
      "type": "event"
    },
    {
      "anonymous": false,
      "inputs": [
        {
          "indexed": true,
          "internalType": "address",
          "name": "owner",
          "type": "address"
        },
        {
          "indexed": false,
          "internalType": "string",
          "name": "name",
          "type": "string"
        }
      ],
      "name": "NewPlayer",
      "type": "event"
    },
    {
      "anonymous": false,
      "inputs": [
        {
          "indexed": true,
          "internalType": "address",
          "name": "previousOwner",
          "type": "address"
        },
        {
          "indexed": true,
          "internalType": "address",
          "name": "newOwner",
          "type": "address"
        }
      ],
      "name": "OwnershipTransferred",
      "type": "event"
    },
    {
      "anonymous": false,
      "inputs": [
        {
          "indexed": false,
          "internalType": "address[2]",
          "name": "damagedPlayers",
          "type": "address[2]"
        }
      ],
      "name": "RoundEnded",
      "type": "event"
    },
    {
      "anonymous": false,
      "inputs": [
        {
          "indexed": true,
          "internalType": "address",
          "name": "operator",
          "type": "address"
        },
        {
          "indexed": true,
          "internalType": "address",
          "name": "from",
          "type": "address"
        },
        {
          "indexed": true,
          "internalType": "address",
          "name": "to",
          "type": "address"
        },
        {
          "indexed": false,
          "internalType": "uint256[]",
          "name": "ids",
          "type": "uint256[]"
        },
        {
          "indexed": false,
          "internalType": "uint256[]",
          "name": "values",
          "type": "uint256[]"
        }
      ],
      "name": "TransferBatch",
      "type": "event"
    },
    {
      "anonymous": false,
      "inputs": [
        {
          "indexed": true,
          "internalType": "address",
          "name": "operator",
          "type": "address"
        },
        {
          "indexed": true,
          "internalType": "address",
          "name": "from",
          "type": "address"
        },
        {
          "indexed": true,
          "internalType": "address",
          "name": "to",
          "type": "address"
        },
        {
          "indexed": false,
          "internalType": "uint256",
          "name": "id",
          "type": "uint256"
        },
        {
          "indexed": false,
          "internalType": "uint256",
          "name": "value",
          "type": "uint256"
        }
      ],
      "name": "TransferSingle",
      "type": "event"
    },
    {
      "anonymous": false,
      "inputs": [
        {
          "indexed": false,
          "internalType": "string",
          "name": "value",
          "type": "string"
        },
        {
          "indexed": true,
          "internalType": "uint256",
          "name": "id",
          "type": "uint256"
        }
      ],
      "name": "URI",
      "type": "event"
    },
    {
      "inputs": [],
      "name": "CELESTION",
      "outputs": [
        {
          "internalType": "uint256",
          "name": "",
          "type": "uint256"
        }
      ],
      "stateMutability": "view",
      "type": "function"
    },
    {
      "inputs": [],
      "name": "DEVIL",
      "outputs": [
        {
          "internalType": "uint256",
          "name": "",
          "type": "uint256"
        }
      ],
      "stateMutability": "view",
      "type": "function"
    },
    {
      "inputs": [],
      "name": "FIREBIRD",
      "outputs": [
        {
          "internalType": "uint256",
          "name": "",
          "type": "uint256"
        }
      ],
      "stateMutability": "view",
      "type": "function"
    },
    {
      "inputs": [],
      "name": "GRIFFIN",
      "outputs": [
        {
          "internalType": "uint256",
          "name": "",
          "type": "uint256"
        }
      ],
      "stateMutability": "view",
      "type": "function"
    },
    {
      "inputs": [],
      "name": "KAMO",
      "outputs": [
        {
          "internalType": "uint256",
          "name": "",
          "type": "uint256"
        }
      ],
      "stateMutability": "view",
      "type": "function"
    },
    {
      "inputs": [],
      "name": "KUKULKAN",
      "outputs": [
        {
          "internalType": "uint256",
          "name": "",
          "type": "uint256"
        }
      ],
      "stateMutability": "view",
      "type": "function"
    },
    {
      "inputs": [],
      "name": "MAX_ATTACK_DEFEND_STRENGTH",
      "outputs": [
        {
          "internalType": "uint256",
          "name": "",
          "type": "uint256"
        }
      ],
      "stateMutability": "view",
      "type": "function"
    },
    {
      "inputs": [
        {
          "internalType": "uint8",
          "name": "_choice",
          "type": "uint8"
        },
        {
          "internalType": "string",
          "name": "_battleName",
          "type": "string"
        }
      ],
      "name": "attackOrDefendChoice",
      "outputs": [],
      "stateMutability": "nonpayable",
      "type": "function"
    },
    {
      "inputs": [
        {
          "internalType": "address",
          "name": "account",
          "type": "address"
        },
        {
          "internalType": "uint256",
          "name": "id",
          "type": "uint256"
        }
      ],
      "name": "balanceOf",
      "outputs": [
        {
          "internalType": "uint256",
          "name": "",
          "type": "uint256"
        }
      ],
      "stateMutability": "view",
      "type": "function"
    },
    {
      "inputs": [
        {
          "internalType": "address[]",
          "name": "accounts",
          "type": "address[]"
        },
        {
          "internalType": "uint256[]",
          "name": "ids",
          "type": "uint256[]"
        }
      ],
      "name": "balanceOfBatch",
      "outputs": [
        {
          "internalType": "uint256[]",
          "name": "",
          "type": "uint256[]"
        }
      ],
      "stateMutability": "view",
      "type": "function"
    },
    {
      "inputs": [],
      "name": "baseURI",
      "outputs": [
        {
          "internalType": "string",
          "name": "",
          "type": "string"
        }
      ],
      "stateMutability": "view",
      "type": "function"
    },
    {
      "inputs": [
        {
          "internalType": "string",
          "name": "",
          "type": "string"
        }
      ],
      "name": "battleInfo",
      "outputs": [
        {
          "internalType": "uint256",
          "name": "",
          "type": "uint256"
        }
      ],
      "stateMutability": "view",
      "type": "function"
    },
    {
      "inputs": [
        {
          "internalType": "uint256",
          "name": "",
          "type": "uint256"
        }
      ],
      "name": "battles",
      "outputs": [
        {
          "internalType": "enum AVAXGods.BattleStatus",
          "name": "battleStatus",
          "type": "uint8"
        },
        {
          "internalType": "bytes32",
          "name": "battleHash",
          "type": "bytes32"
        },
        {
          "internalType": "string",
          "name": "name",
          "type": "string"
        },
        {
          "internalType": "address",
          "name": "winner",
          "type": "address"
        }
      ],
      "stateMutability": "view",
      "type": "function"
    },
    {
      "inputs": [
        {
          "internalType": "string",
          "name": "_name",
          "type": "string"
        }
      ],
      "name": "createBattle",
      "outputs": [
        {
          "components": [
            {
              "internalType": "enum AVAXGods.BattleStatus",
              "name": "battleStatus",
              "type": "uint8"
            },
            {
              "internalType": "bytes32",
              "name": "battleHash",
              "type": "bytes32"
            },
            {
              "internalType": "string",
              "name": "name",
              "type": "string"
            },
            {
              "internalType": "address[2]",
              "name": "players",
              "type": "address[2]"
            },
            {
              "internalType": "uint8[2]",
              "name": "moves",
              "type": "uint8[2]"
            },
            {
              "internalType": "address",
              "name": "winner",
              "type": "address"
            }
          ],
          "internalType": "struct AVAXGods.Battle",
          "name": "",
          "type": "tuple"
        }
      ],
      "stateMutability": "nonpayable",
      "type": "function"
    },
    {
      "inputs": [
        {
          "internalType": "string",
          "name": "_name",
          "type": "string"
        }
      ],
      "name": "createRandomGameToken",
      "outputs": [],
      "stateMutability": "nonpayable",
      "type": "function"
    },
    {
      "inputs": [
        {
          "internalType": "uint256",
          "name": "id",
          "type": "uint256"
        }
      ],
      "name": "exists",
      "outputs": [
        {
          "internalType": "bool",
          "name": "",
          "type": "bool"
        }
      ],
      "stateMutability": "view",
      "type": "function"
    },
    {
      "inputs": [
        {
          "internalType": "uint256",
          "name": "",
          "type": "uint256"
        }
      ],
      "name": "gameTokens",
      "outputs": [
        {
          "internalType": "string",
          "name": "name",
          "type": "string"
        },
        {
          "internalType": "uint256",
          "name": "id",
          "type": "uint256"
        },
        {
          "internalType": "uint256",
          "name": "attackStrength",
          "type": "uint256"
        },
        {
          "internalType": "uint256",
          "name": "defenseStrength",
          "type": "uint256"
        }
      ],
      "stateMutability": "view",
      "type": "function"
    },
    {
      "inputs": [],
      "name": "getAllBattles",
      "outputs": [
        {
          "components": [
            {
              "internalType": "enum AVAXGods.BattleStatus",
              "name": "battleStatus",
              "type": "uint8"
            },
            {
              "internalType": "bytes32",
              "name": "battleHash",
              "type": "bytes32"
            },
            {
              "internalType": "string",
              "name": "name",
              "type": "string"
            },
            {
              "internalType": "address[2]",
              "name": "players",
              "type": "address[2]"
            },
            {
              "internalType": "uint8[2]",
              "name": "moves",
              "type": "uint8[2]"
            },
            {
              "internalType": "address",
              "name": "winner",
              "type": "address"
            }
          ],
          "internalType": "struct AVAXGods.Battle[]",
          "name": "",
          "type": "tuple[]"
        }
      ],
      "stateMutability": "view",
      "type": "function"
    },
    {
      "inputs": [],
      "name": "getAllPlayerTokens",
      "outputs": [
        {
          "components": [
            {
              "internalType": "string",
              "name": "name",
              "type": "string"
            },
            {
              "internalType": "uint256",
              "name": "id",
              "type": "uint256"
            },
            {
              "internalType": "uint256",
              "name": "attackStrength",
              "type": "uint256"
            },
            {
              "internalType": "uint256",
              "name": "defenseStrength",
              "type": "uint256"
            }
          ],
          "internalType": "struct AVAXGods.GameToken[]",
          "name": "",
          "type": "tuple[]"
        }
      ],
      "stateMutability": "view",
      "type": "function"
    },
    {
      "inputs": [],
      "name": "getAllPlayers",
      "outputs": [
        {
          "components": [
            {
              "internalType": "address",
              "name": "playerAddress",
              "type": "address"
            },
            {
              "internalType": "string",
              "name": "playerName",
              "type": "string"
            },
            {
              "internalType": "uint256",
              "name": "playerMana",
              "type": "uint256"
            },
            {
              "internalType": "uint256",
              "name": "playerHealth",
              "type": "uint256"
            },
            {
              "internalType": "bool",
              "name": "inBattle",
              "type": "bool"
            }
          ],
          "internalType": "struct AVAXGods.Player[]",
          "name": "",
          "type": "tuple[]"
        }
      ],
      "stateMutability": "view",
      "type": "function"
    },
    {
      "inputs": [
        {
          "internalType": "string",
          "name": "_name",
          "type": "string"
        }
      ],
      "name": "getBattle",
      "outputs": [
        {
          "components": [
            {
              "internalType": "enum AVAXGods.BattleStatus",
              "name": "battleStatus",
              "type": "uint8"
            },
            {
              "internalType": "bytes32",
              "name": "battleHash",
              "type": "bytes32"
            },
            {
              "internalType": "string",
              "name": "name",
              "type": "string"
            },
            {
              "internalType": "address[2]",
              "name": "players",
              "type": "address[2]"
            },
            {
              "internalType": "uint8[2]",
              "name": "moves",
              "type": "uint8[2]"
            },
            {
              "internalType": "address",
              "name": "winner",
              "type": "address"
            }
          ],
          "internalType": "struct AVAXGods.Battle",
          "name": "",
          "type": "tuple"
        }
      ],
      "stateMutability": "view",
      "type": "function"
    },
    {
      "inputs": [
        {
          "internalType": "string",
          "name": "_battleName",
          "type": "string"
        }
      ],
      "name": "getBattleMoves",
      "outputs": [
        {
          "internalType": "uint256",
          "name": "P1Move",
          "type": "uint256"
        },
        {
          "internalType": "uint256",
          "name": "P2Move",
          "type": "uint256"
        }
      ],
      "stateMutability": "view",
      "type": "function"
    },
    {
      "inputs": [
        {
          "internalType": "address",
          "name": "addr",
          "type": "address"
        }
      ],
      "name": "getPlayer",
      "outputs": [
        {
          "components": [
            {
              "internalType": "address",
              "name": "playerAddress",
              "type": "address"
            },
            {
              "internalType": "string",
              "name": "playerName",
              "type": "string"
            },
            {
              "internalType": "uint256",
              "name": "playerMana",
              "type": "uint256"
            },
            {
              "internalType": "uint256",
              "name": "playerHealth",
              "type": "uint256"
            },
            {
              "internalType": "bool",
              "name": "inBattle",
              "type": "bool"
            }
          ],
          "internalType": "struct AVAXGods.Player",
          "name": "",
          "type": "tuple"
        }
      ],
      "stateMutability": "view",
      "type": "function"
    },
    {
      "inputs": [
        {
          "internalType": "address",
          "name": "addr",
          "type": "address"
        }
      ],
      "name": "getPlayerToken",
      "outputs": [
        {
          "components": [
            {
              "internalType": "string",
              "name": "name",
              "type": "string"
            },
            {
              "internalType": "uint256",
              "name": "id",
              "type": "uint256"
            },
            {
              "internalType": "uint256",
              "name": "attackStrength",
              "type": "uint256"
            },
            {
              "internalType": "uint256",
              "name": "defenseStrength",
              "type": "uint256"
            }
          ],
          "internalType": "struct AVAXGods.GameToken",
          "name": "",
          "type": "tuple"
        }
      ],
      "stateMutability": "view",
      "type": "function"
    },
    {
      "inputs": [],
      "name": "getTotalSupply",
      "outputs": [
        {
          "internalType": "uint256",
          "name": "",
          "type": "uint256"
        }
      ],
      "stateMutability": "view",
      "type": "function"
    },
    {
      "inputs": [
        {
          "internalType": "address",
          "name": "account",
          "type": "address"
        },
        {
          "internalType": "address",
          "name": "operator",
          "type": "address"
        }
      ],
      "name": "isApprovedForAll",
      "outputs": [
        {
          "internalType": "bool",
          "name": "",
          "type": "bool"
        }
      ],
      "stateMutability": "view",
      "type": "function"
    },
    {
      "inputs": [
        {
          "internalType": "string",
          "name": "_name",
          "type": "string"
        }
      ],
      "name": "isBattle",
      "outputs": [
        {
          "internalType": "bool",
          "name": "",
          "type": "bool"
        }
      ],
      "stateMutability": "view",
      "type": "function"
    },
    {
      "inputs": [
        {
          "internalType": "address",
          "name": "addr",
          "type": "address"
        }
      ],
      "name": "isPlayer",
      "outputs": [
        {
          "internalType": "bool",
          "name": "",
          "type": "bool"
        }
      ],
      "stateMutability": "view",
      "type": "function"
    },
    {
      "inputs": [
        {
          "internalType": "address",
          "name": "addr",
          "type": "address"
        }
      ],
      "name": "isPlayerToken",
      "outputs": [
        {
          "internalType": "bool",
          "name": "",
          "type": "bool"
        }
      ],
      "stateMutability": "view",
      "type": "function"
    },
    {
      "inputs": [
        {
          "internalType": "string",
          "name": "_name",
          "type": "string"
        }
      ],
      "name": "joinBattle",
      "outputs": [
        {
          "components": [
            {
              "internalType": "enum AVAXGods.BattleStatus",
              "name": "battleStatus",
              "type": "uint8"
            },
            {
              "internalType": "bytes32",
              "name": "battleHash",
              "type": "bytes32"
            },
            {
              "internalType": "string",
              "name": "name",
              "type": "string"
            },
            {
              "internalType": "address[2]",
              "name": "players",
              "type": "address[2]"
            },
            {
              "internalType": "uint8[2]",
              "name": "moves",
              "type": "uint8[2]"
            },
            {
              "internalType": "address",
              "name": "winner",
              "type": "address"
            }
          ],
          "internalType": "struct AVAXGods.Battle",
          "name": "",
          "type": "tuple"
        }
      ],
      "stateMutability": "nonpayable",
      "type": "function"
    },
    {
      "inputs": [],
      "name": "owner",
      "outputs": [
        {
          "internalType": "address",
          "name": "",
          "type": "address"
        }
      ],
      "stateMutability": "view",
      "type": "function"
    },
    {
      "inputs": [
        {
          "internalType": "address",
          "name": "",
          "type": "address"
        }
      ],
      "name": "playerInfo",
      "outputs": [
        {
          "internalType": "uint256",
          "name": "",
          "type": "uint256"
        }
      ],
      "stateMutability": "view",
      "type": "function"
    },
    {
      "inputs": [
        {
          "internalType": "address",
          "name": "",
          "type": "address"
        }
      ],
      "name": "playerTokenInfo",
      "outputs": [
        {
          "internalType": "uint256",
          "name": "",
          "type": "uint256"
        }
      ],
      "stateMutability": "view",
      "type": "function"
    },
    {
      "inputs": [
        {
          "internalType": "uint256",
          "name": "",
          "type": "uint256"
        }
      ],
      "name": "players",
      "outputs": [
        {
          "internalType": "address",
          "name": "playerAddress",
          "type": "address"
        },
        {
          "internalType": "string",
          "name": "playerName",
          "type": "string"
        },
        {
          "internalType": "uint256",
          "name": "playerMana",
          "type": "uint256"
        },
        {
          "internalType": "uint256",
          "name": "playerHealth",
          "type": "uint256"
        },
        {
          "internalType": "bool",
          "name": "inBattle",
          "type": "bool"
        }
      ],
      "stateMutability": "view",
      "type": "function"
    },
    {
      "inputs": [
        {
          "internalType": "string",
          "name": "_battleName",
          "type": "string"
        }
      ],
      "name": "quitBattle",
      "outputs": [],
      "stateMutability": "nonpayable",
      "type": "function"
    },
    {
      "inputs": [
        {
          "internalType": "string",
          "name": "_name",
          "type": "string"
        },
        {
          "internalType": "string",
          "name": "_gameTokenName",
          "type": "string"
        }
      ],
      "name": "registerPlayer",
      "outputs": [],
      "stateMutability": "nonpayable",
      "type": "function"
    },
    {
      "inputs": [],
      "name": "renounceOwnership",
      "outputs": [],
      "stateMutability": "nonpayable",
      "type": "function"
    },
    {
      "inputs": [
        {
          "internalType": "address",
          "name": "from",
          "type": "address"
        },
        {
          "internalType": "address",
          "name": "to",
          "type": "address"
        },
        {
          "internalType": "uint256[]",
          "name": "ids",
          "type": "uint256[]"
        },
        {
          "internalType": "uint256[]",
          "name": "amounts",
          "type": "uint256[]"
        },
        {
          "internalType": "bytes",
          "name": "data",
          "type": "bytes"
        }
      ],
      "name": "safeBatchTransferFrom",
      "outputs": [],
      "stateMutability": "nonpayable",
      "type": "function"
    },
    {
      "inputs": [
        {
          "internalType": "address",
          "name": "from",
          "type": "address"
        },
        {
          "internalType": "address",
          "name": "to",
          "type": "address"
        },
        {
          "internalType": "uint256",
          "name": "id",
          "type": "uint256"
        },
        {
          "internalType": "uint256",
          "name": "amount",
          "type": "uint256"
        },
        {
          "internalType": "bytes",
          "name": "data",
          "type": "bytes"
        }
      ],
      "name": "safeTransferFrom",
      "outputs": [],
      "stateMutability": "nonpayable",
      "type": "function"
    },
    {
      "inputs": [
        {
          "internalType": "address",
          "name": "operator",
          "type": "address"
        },
        {
          "internalType": "bool",
          "name": "approved",
          "type": "bool"
        }
      ],
      "name": "setApprovalForAll",
      "outputs": [],
      "stateMutability": "nonpayable",
      "type": "function"
    },
    {
      "inputs": [
        {
          "internalType": "string",
          "name": "newuri",
          "type": "string"
        }
      ],
      "name": "setURI",
      "outputs": [],
      "stateMutability": "nonpayable",
      "type": "function"
    },
    {
      "inputs": [
        {
          "internalType": "bytes4",
          "name": "interfaceId",
          "type": "bytes4"
        }
      ],
      "name": "supportsInterface",
      "outputs": [
        {
          "internalType": "bool",
          "name": "",
          "type": "bool"
        }
      ],
      "stateMutability": "view",
      "type": "function"
    },
    {
      "inputs": [
        {
          "internalType": "uint256",
          "name": "tokenId",
          "type": "uint256"
        }
      ],
      "name": "tokenURI",
      "outputs": [
        {
          "internalType": "string",
          "name": "",
          "type": "string"
        }
      ],
      "stateMutability": "view",
      "type": "function"
    },
    {
      "inputs": [],
      "name": "totalSupply",
      "outputs": [
        {
          "internalType": "uint256",
          "name": "",
          "type": "uint256"
        }
      ],
      "stateMutability": "view",
      "type": "function"
    },
    {
      "inputs": [
        {
          "internalType": "uint256",
          "name": "id",
          "type": "uint256"
        }
      ],
      "name": "totalSupply",
      "outputs": [
        {
          "internalType": "uint256",
          "name": "",
          "type": "uint256"
        }
      ],
      "stateMutability": "view",
      "type": "function"
    },
    {
      "inputs": [
        {
          "internalType": "address",
          "name": "newOwner",
          "type": "address"
        }
      ],
      "name": "transferOwnership",
      "outputs": [],
      "stateMutability": "nonpayable",
      "type": "function"
    },
    {
      "inputs": [
        {
          "internalType": "uint256",
          "name": "",
          "type": "uint256"
        }
      ],
      "name": "uri",
      "outputs": [
        {
          "internalType": "string",
          "name": "",
          "type": "string"
        }
      ],
      "stateMutability": "view",
      "type": "function"
    }
  ],
  "bytecode": "0x60806040523480156200001157600080fd5b506040516200567f3803806200567f833981016040819052620000349162000482565b8062000040816200006c565b506200004c336200007e565b60056200005a8282620005e6565b5062000065620000d0565b50620006c8565b60026200007a8282620005e6565b5050565b600380546001600160a01b038381166001600160a01b0319831681179093556040519116919082907f8be0079c531659141344cd1fd0a4f28419497f9722a3daafe3b4186f6b6457e090600090a35050565b6040805160a08101825260006080820181815282526020820181905291810182905260608101829052600b80546001810182559252805190916004027f0175b7a638427703f0dbe7bb9bbf987a2551717b34e79f33b5b1008d1fa01db9019081906200013d9082620005e6565b506020828101516001838101919091556040808501516002850155606094850151600390940193909355825160a08101845260008082528451808501865281815293820193845293810184905293840183905260808401839052600a8054918201815590925282517fc65a7bb8d6351c1cf70c95a316cc6a92839c986682d98bc35f958f4883f9d2a8600590930292830180546001600160a01b0319166001600160a01b03909216919091178155905190917fc65a7bb8d6351c1cf70c95a316cc6a92839c986682d98bc35f958f4883f9d2a901906200021e9082620005e6565b506040828101516002830155606083015160038301556080909201516004909101805460ff1916911515919091179055805160c08101909152600c90806000815260006020808301829052604080518083018252838152818501528051808201825283815280830184905260608501528051808201909152828152808201839052608084015260a09092018190528354600181810186559482529190208251600790920201805492939092839160ff1990911690836002811115620002e757620002e7620006b2565b021790555060208201516001820155604082015160028201906200030c9082620005e6565b50606082015162000324906003830190600262000368565b5060808201516200033c9060058301906002620003c5565b5060a09190910151600690910180546001600160a01b0319166001600160a01b03909216919091179055565b8260028101928215620003b3579160200282015b82811115620003b357825182546001600160a01b0319166001600160a01b039091161782556020909201916001909101906200037c565b50620003c192915062000455565b5090565b600183019183908215620003b35791602002820160005b838211156200041c57835183826101000a81548160ff021916908360ff1602179055509260200192600101602081600001049283019260010302620003dc565b80156200044b5782816101000a81549060ff02191690556001016020816000010492830192600103026200041c565b5050620003c19291505b5b80821115620003c1576000815560010162000456565b634e487b7160e01b600052604160045260246000fd5b600060208083850312156200049657600080fd5b82516001600160401b0380821115620004ae57600080fd5b818501915085601f830112620004c357600080fd5b815181811115620004d857620004d86200046c565b604051601f8201601f19908116603f011681019083821181831017156200050357620005036200046c565b8160405282815288868487010111156200051c57600080fd5b600093505b8284101562000540578484018601518185018701529285019262000521565b600086848301015280965050505050505092915050565b600181811c908216806200056c57607f821691505b6020821081036200058d57634e487b7160e01b600052602260045260246000fd5b50919050565b601f821115620005e157600081815260208120601f850160051c81016020861015620005bc5750805b601f850160051c820191505b81811015620005dd57828155600101620005c8565b5050505b505050565b81516001600160401b038111156200060257620006026200046c565b6200061a8162000613845462000557565b8462000593565b602080601f831160018114620006525760008415620006395750858301515b600019600386901b1c1916600185901b178555620005dd565b600085815260208120601f198616915b82811015620006835788860151825594840194600190910190840162000662565b5085821015620006a25787850151600019600388901b60f8161c191681555b5050505050600190811b01905550565b634e487b7160e01b600052602160045260246000fd5b614fa780620006d86000396000f3fe608060405234801561001057600080fd5b50600436106102945760003560e01c8063703730a511610167578063bf034b69116100ce578063e985e9c511610087578063e985e9c51461062c578063efa1c48214610668578063f1da73391461067d578063f242432a14610685578063f2fde38b14610698578063f71d96cb146106ab57600080fd5b8063bf034b69146105cb578063bf103a4d146105ee578063c4e41b2214610601578063c87b56dd14610609578063d2198cc51461061c578063de96cefc1461062457600080fd5b80639e4ecd11116101205780639e4ecd11146105575780639ec40aa31461055f578063a1b4f57c14610572578063a22cb46514610585578063ba27495614610598578063bd85b039146105ab57600080fd5b8063703730a5146104de578063715018a6146104e6578063845f433b146104ee5780638da5cb5b14610501578063996d7bea1461051c5780639b09cc871461052f57600080fd5b806318160ddd1161020b5780634e1273f4116101c45780634e1273f41461043c5780634f558e791461045c5780635c12cd4b1461047e5780635c93fc3d1461049e578063606d2e96146104b35780636c0360eb146104d657600080fd5b806318160ddd146103a25780632711162e146103ab5780632ca04522146103cb5780632eb2c2d6146103de5780633835e2b5146103f15780634b1146911461041c57600080fd5b806309c95e101161025d57806309c95e10146103145780630daea2cd146103275780630e89341c1461032f57806310898e4c1461034f5780631107ae3d1461036f57806316801d171461038257600080fd5b8062fdd58e14610299578063015a3792146102bf57806301ffc9a7146102d457806302fe5305146102f75780630677aa4e1461030c575b600080fd5b6102ac6102a736600461400c565b6106cf565b6040519081526020015b60405180910390f35b6102c7610768565b6040516102b691906140c5565b6102e76102e236600461413d565b610877565b60405190151581526020016102b6565b61030a610305366004614216565b6108c7565b005b6102ac600381565b6102e761032236600461424a565b6108db565b6102ac600a81565b61034261033d366004614265565b61090f565b6040516102b6919061427e565b61036261035d36600461424a565b6109a3565b6040516102b69190614291565b6102e761037d366004614216565b610b1d565b610395610390366004614216565b610b4d565b6040516102b69190614398565b6102ac60065481565b6102ac6103b936600461424a565b60086020526000908152604090205481565b6103956103d9366004614216565b610d68565b61030a6103ec36600461443f565b610f5e565b6102ac6103ff366004614216565b805160208183018101805160098252928201919093012091525481565b6102ac61042a36600461424a565b60076020526000908152604090205481565b61044f61044a3660046144e8565b610faa565b6040516102b691906145ed565b6102e761046a366004614265565b600090815260046020526040902054151590565b61049161048c36600461424a565b6110d3565b6040516102b69190614653565b6104a6611277565b6040516102b69190614666565b6104c66104c1366004614265565b611442565b6040516102b694939291906146bb565b610342611514565b6102ac600281565b61030a6115a2565b61030a6104fc3660046146fa565b6115b6565b6003546040516001600160a01b0390911681526020016102b6565b61030a61052a366004614216565b611749565b61054261053d366004614216565b611810565b604080519283526020830191909152016102b6565b6102ac600581565b61030a61056d366004614216565b61183a565b610395610580366004614216565b6118be565b61030a610593366004614753565b611b27565b61030a6105a636600461478f565b611b32565b6102ac6105b9366004614265565b60009081526004602052604090205490565b6105de6105d9366004614265565b611e24565b6040516102b694939291906147da565b6102e76105fc36600461424a565b611eec565b6006546102ac565b610342610617366004614265565b611f13565b6102ac600081565b6102ac600181565b6102e761063a366004614809565b6001600160a01b03918216600090815260016020908152604080832093909416825291909152205460ff1690565b610670611f47565b6040516102b6919061483c565b6102ac600481565b61030a610693366004614891565b61206e565b61030a6106a636600461424a565b6120b3565b6106be6106b9366004614265565b612129565b6040516102b69594939291906148f5565b60006001600160a01b03831661073f5760405162461bcd60e51b815260206004820152602a60248201527f455243313135353a2061646472657373207a65726f206973206e6f742061207660448201526930b634b21037bbb732b960b11b60648201526084015b60405180910390fd5b506000818152602081815260408083206001600160a01b03861684529091529020545b92915050565b6060600b805480602002602001604051908101604052809291908181526020016000905b8282101561086e57838290600052602060002090600402016040518060800160405290816000820180546107bf90614938565b80601f01602080910402602001604051908101604052809291908181526020018280546107eb90614938565b80156108385780601f1061080d57610100808354040283529160200191610838565b820191906000526020600020905b81548152906001019060200180831161081b57829003601f168201915b5050505050815260200160018201548152602001600282015481526020016003820154815250508152602001906001019061078c565b50505050905090565b60006001600160e01b03198216636cdb3d1360e11b14806108a857506001600160e01b031982166303a24d0760e21b145b8061076257506301ffc9a760e01b6001600160e01b0319831614610762565b6108cf612202565b6108d88161225c565b50565b6001600160a01b038116600090815260076020526040812054810361090257506000919050565b506001919050565b919050565b60606002805461091e90614938565b80601f016020809104026020016040519081016040528092919081815260200182805461094a90614938565b80156109975780601f1061096c57610100808354040283529160200191610997565b820191906000526020600020905b81548152906001019060200180831161097a57829003601f168201915b50505050509050919050565b6109ce6040518060800160405280606081526020016000815260200160008152602001600081525090565b6109d782611eec565b610a1f5760405162461bcd60e51b815260206004820152601960248201527847616d6520746f6b656e20646f65736e27742065786973742160381b6044820152606401610736565b6001600160a01b038216600090815260086020526040902054600b80549091908110610a4d57610a4d614972565b9060005260206000209060040201604051806080016040529081600082018054610a7690614938565b80601f0160208091040260200160405190810160405280929190818152602001828054610aa290614938565b8015610aef5780601f10610ac457610100808354040283529160200191610aef565b820191906000526020600020905b815481529060010190602001808311610ad257829003601f168201915b5050505050815260200160018201548152602001600282015481526020016003820154815250509050919050565b6000600982604051610b2f9190614988565b90815260200160405180910390205460000361090257506000919050565b610b55613e99565b610b5e82610b1d565b610ba25760405162461bcd60e51b8152602060048201526015602482015274426174746c6520646f65736e27742065786973742160581b6044820152606401610736565b600c600983604051610bb49190614988565b90815260200160405180910390205481548110610bd357610bd3614972565b600091825260209091206040805160c081019091526007909202018054829060ff166002811115610c0657610c066142a4565b6002811115610c1757610c176142a4565b815260200160018201548152602001600282018054610c3590614938565b80601f0160208091040260200160405190810160405280929190818152602001828054610c6190614938565b8015610cae5780601f10610c8357610100808354040283529160200191610cae565b820191906000526020600020905b815481529060010190602001808311610c9157829003601f168201915b5050509183525050604080518082019182905260209092019190600384019060029082845b81546001600160a01b03168152600190910190602001808311610cd35750505091835250506040805180820191829052602090920191906005840190600290826000855b825461010083900a900460ff16815260206001928301818104948501949093039092029101808411610d1757505050928452505050600691909101546001600160a01b031660209091015292915050565b610d70613e99565b610d79336108db565b610d955760405162461bcd60e51b8152600401610736906149a4565b610d9e82610b1d565b15610de45760405162461bcd60e51b8152602060048201526016602482015275426174746c6520616c7265616479206578697374732160501b6044820152606401610736565b600082604051602001610df7919061427e565b60408051808303601f19018152828252805160209182012060c084018352600080855282850182905284840188905283518085018552338152808401829052606086015283518085018552818152928301819052608085019290925260a0840191909152600c5491519093508190600990610e73908890614988565b90815260405190819003602001902055600c805460018181018355600092909252835160079091027fdf6966c971051c3d54ec59162606531493a51404a002842f56009d7e5cf4a8c70180548593919291839160ff191690836002811115610edd57610edd6142a4565b02179055506020820151600182015560408201516002820190610f009082614a21565b506060820151610f169060038301906002613edc565b506080820151610f2c9060058301906002613f34565b5060a09190910151600690910180546001600160a01b0319166001600160a01b03909216919091179055509392505050565b6001600160a01b038516331480610f7a5750610f7a853361063a565b610f965760405162461bcd60e51b815260040161073690614ae0565b610fa38585858585612268565b5050505050565b6060815183511461100f5760405162461bcd60e51b815260206004820152602960248201527f455243313135353a206163636f756e747320616e6420696473206c656e677468604482015268040dad2e6dac2e8c6d60bb1b6064820152608401610736565b600083516001600160401b0381111561102a5761102a614161565b604051908082528060200260200182016040528015611053578160200160208202803683370190505b50905060005b84518110156110cb5761109e85828151811061107757611077614972565b602002602001015185838151811061109157611091614972565b60200260200101516106cf565b8282815181106110b0576110b0614972565b60209081029190910101526110c481614b44565b9050611059565b509392505050565b6111106040518060a0016040528060006001600160a01b031681526020016060815260200160008152602001600081526020016000151581525090565b611119826108db565b61115d5760405162461bcd60e51b8152602060048201526015602482015274506c6179657220646f65736e27742065786973742160581b6044820152606401610736565b6001600160a01b038216600090815260076020526040902054600a8054909190811061118b5761118b614972565b60009182526020918290206040805160a0810190915260059092020180546001600160a01b0316825260018101805492939192918401916111cb90614938565b80601f01602080910402602001604051908101604052809291908181526020018280546111f790614938565b80156112445780601f1061121957610100808354040283529160200191611244565b820191906000526020600020905b81548152906001019060200180831161122757829003601f168201915b5050509183525050600282015460208201526003820154604082015260049091015460ff16151560609091015292915050565b6060600c805480602002602001604051908101604052809291908181526020016000905b8282101561086e576000848152602090206040805160c08101909152600784029091018054829060ff1660028111156112d6576112d66142a4565b60028111156112e7576112e76142a4565b81526020016001820154815260200160028201805461130590614938565b80601f016020809104026020016040519081016040528092919081815260200182805461133190614938565b801561137e5780601f106113535761010080835404028352916020019161137e565b820191906000526020600020905b81548152906001019060200180831161136157829003601f168201915b5050509183525050604080518082019182905260209092019190600384019060029082845b81546001600160a01b031681526001909101906020018083116113a35750505091835250506040805180820191829052602090920191906005840190600290826000855b825461010083900a900460ff168152602060019283018181049485019490930390920291018084116113e757505050928452505050600691909101546001600160a01b0316602091820152908252600192909201910161129b565b600c818154811061145257600080fd5b600091825260209091206007909102018054600182015460028301805460ff909316945090929161148290614938565b80601f01602080910402602001604051908101604052809291908181526020018280546114ae90614938565b80156114fb5780601f106114d0576101008083540402835291602001916114fb565b820191906000526020600020905b8154815290600101906020018083116114de57829003601f168201915b505050600690930154919250506001600160a01b031684565b6005805461152190614938565b80601f016020809104026020016040519081016040528092919081815260200182805461154d90614938565b801561159a5780601f1061156f5761010080835404028352916020019161159a565b820191906000526020600020905b81548152906001019060200180831161157d57829003601f168201915b505050505081565b6115aa612202565b6115b46000612453565b565b6115bf336108db565b156116085760405162461bcd60e51b8152602060048201526019602482015278141b185e595c88185b1c9958591e481c9959da5cdd195c9959603a1b6044820152606401610736565b600a80546040805160a08101825233815260208101868152918101849052601960608201526000608082018190526001840185559390935282517fc65a7bb8d6351c1cf70c95a316cc6a92839c986682d98bc35f958f4883f9d2a86005840290810180546001600160a01b0319166001600160a01b03909316929092178255915192939290917fc65a7bb8d6351c1cf70c95a316cc6a92839c986682d98bc35f958f4883f9d2a901906116bb9082614a21565b506040828101516002830155606083015160038301556080909201516004909101805460ff19169115159190911790553360009081526007602052208190556117038261183a565b336001600160a01b03167f81ef79d1cda814a60c0fc60792e648a06d9c6bae67176346d1cc8b63030bfccd8460405161173c919061427e565b60405180910390a2505050565b600061175482610b4d565b6060810151519091506001600160a01b031633148061178357506060810151602001516001600160a01b031633145b6117cf5760405162461bcd60e51b815260206004820152601b60248201527f596f7520617265206e6f7420696e207468697320626174746c652100000000006044820152606401610736565b6060810151516001600160a01b031633146118005760608101516117fb9060005b6020020151826124a5565b505050565b60608101516117fb9060016117f0565b600080600061181e84610b4d565b60800151805160209091015160ff918216969116945092505050565b611843336110d3565b608001511561188c5760405162461bcd60e51b8152602060048201526015602482015274506c6179657220697320696e206120626174746c6560581b6044820152606401610736565b611895336108db565b6118b15760405162461bcd60e51b8152600401610736906149a4565b6118ba8161275c565b5050565b6118c6613e99565b60006118d183610b4d565b90506000815160028111156118e8576118e86142a4565b1461192f5760405162461bcd60e51b8152602060048201526017602482015276426174746c6520616c726561647920737461727465642160481b6044820152606401610736565b606081015151336001600160a01b03909116036119985760405162461bcd60e51b815260206004820152602160248201527f4f6e6c7920706c617965722074776f2063616e206a6f696e206120626174746c6044820152606560f81b6064820152608401610736565b6119a1336110d3565b60800151156119e65760405162461bcd60e51b8152602060048201526011602482015270416c726561647920696e20626174746c6560781b6044820152606401610736565b60018152606081015133602090910152611a008382612962565b6001600a600760008460600151600060028110611a1f57611a1f614972565b60200201516001600160a01b03166001600160a01b031681526020019081526020016000205481548110611a5557611a55614972565b60009182526020808320600592909202909101600401805460ff19169315159390931790925560608301518201516001600160a01b0316815260079091526040902054600a8054600192908110611aae57611aae614972565b60009182526020822060059190910201600401805460ff1916921515929092179091556060820151339160200201516001600160a01b03167f024187b16c217a79f8d8e6252b542ec6e278fa91304acd9cfd866f2bbf00bd088360400151604051611b19919061427e565b60405180910390a392915050565b6118ba338383612a8e565b6000611b3d82610b4d565b9050600181516002811115611b5457611b546142a4565b14611bd15760405162461bcd60e51b815260206004820152604160248201527f426174746c65206e6f7420737461727465642e20506c656173652074656c6c2060448201527f616e6f7468657220706c6179657220746f206a6f696e2074686520626174746c6064820152606560f81b608482015260a401610736565b600281516002811115611be657611be66142a4565b03611c2e5760405162461bcd60e51b815260206004820152601860248201527710985d1d1b19481a185cc8185b1c9958591e48195b99195960421b6044820152606401610736565b6060810151516001600160a01b0316331480611c5a57506060810151602001516001600160a01b031633145b611ca65760405162461bcd60e51b815260206004820152601a60248201527f596f7520617265206e6f7420696e207468697320626174746c650000000000006044820152606401610736565b60808101516060820151516001600160a01b03163314611cc7576001611cca565b60005b60ff1660028110611cdd57611cdd614972565b602002015160ff1615611d325760405162461bcd60e51b815260206004820152601d60248201527f596f75206861766520616c7265616479206d6164652061206d6f7665210000006044820152606401610736565b606081015151611d5f906001600160a01b03163314611d52576001611d55565b60005b60ff168484612b6e565b611d6882610b4d565b60808101516020015190915060009060ff1615611d86576001611d89565b60005b60808301515160ff1615611d9e576001611da1565b60005b611dac906002614b5d565b611db69190614b5d565b60ff16905080600114611dca576000611dcd565b60015b151583604051611ddd9190614988565b604051908190038120907f54b82b77e7ae55a8e6c9e89deba70c7191dea2a3b08ae647b380e9f981d6a0f890600090a380600003611e1e57611e1e83612cc3565b50505050565b600b8181548110611e3457600080fd5b9060005260206000209060040201600091509050806000018054611e5790614938565b80601f0160208091040260200160405190810160405280929190818152602001828054611e8390614938565b8015611ed05780601f10611ea557610100808354040283529160200191611ed0565b820191906000526020600020905b815481529060010190602001808311611eb357829003601f168201915b5050505050908060010154908060020154908060030154905084565b6001600160a01b038116600090815260086020526040812054810361090257506000919050565b60606005611f2083612ddd565b604051602001611f31929190614b76565b6040516020818303038152906040529050919050565b6060600a805480602002602001604051908101604052809291908181526020016000905b8282101561086e5760008481526020908190206040805160a081019091526005850290910180546001600160a01b031682526001810180549293919291840191611fb490614938565b80601f0160208091040260200160405190810160405280929190818152602001828054611fe090614938565b801561202d5780601f106120025761010080835404028352916020019161202d565b820191906000526020600020905b81548152906001019060200180831161201057829003601f168201915b505050918352505060028201546020808301919091526003830154604083015260049092015460ff1615156060909101529082526001929092019101611f6b565b6001600160a01b03851633148061208a575061208a853361063a565b6120a65760405162461bcd60e51b815260040161073690614ae0565b610fa38585858585612f08565b6120bb612202565b6001600160a01b0381166121205760405162461bcd60e51b815260206004820152602660248201527f4f776e61626c653a206e6577206f776e657220697320746865207a65726f206160448201526564647265737360d01b6064820152608401610736565b6108d881612453565b600a818154811061213957600080fd5b6000918252602090912060059091020180546001820180546001600160a01b0390921693509061216890614938565b80601f016020809104026020016040519081016040528092919081815260200182805461219490614938565b80156121e15780601f106121b6576101008083540402835291602001916121e1565b820191906000526020600020905b8154815290600101906020018083116121c457829003601f168201915b50505050600283015460038401546004909401549293909290915060ff1685565b6003546001600160a01b031633146115b45760405162461bcd60e51b815260206004820181905260248201527f4f776e61626c653a2063616c6c6572206973206e6f7420746865206f776e65726044820152606401610736565b60026118ba8282614a21565b81518351146122ca5760405162461bcd60e51b815260206004820152602860248201527f455243313135353a2069647320616e6420616d6f756e7473206c656e677468206044820152670dad2e6dac2e8c6d60c31b6064820152608401610736565b6001600160a01b0384166122f05760405162461bcd60e51b815260040161073690614c1c565b336122ff818787878787613040565b60005b84518110156123e557600085828151811061231f5761231f614972565b60200260200101519050600085838151811061233d5761233d614972565b602090810291909101810151600084815280835260408082206001600160a01b038e16835290935291909120549091508181101561238d5760405162461bcd60e51b815260040161073690614c61565b6000838152602081815260408083206001600160a01b038e8116855292528083208585039055908b168252812080548492906123ca908490614cab565b92505081905550505050806123de90614b44565b9050612302565b50846001600160a01b0316866001600160a01b0316826001600160a01b03167f4a39dc06d4c0dbc64b70af90fd698a233a518aa5d07e595d983b8c0526c8f7fb8787604051612435929190614cbe565b60405180910390a461244b81878787878761304e565b505050505050565b600380546001600160a01b038381166001600160a01b0319831681179093556040519116919082907f8be0079c531659141344cd1fd0a4f28419497f9722a3daafe3b4186f6b6457e090600090a35050565b6124ad613e99565b6002825160028111156124c2576124c26142a4565b036125065760405162461bcd60e51b815260206004820152601460248201527310985d1d1b1948185b1c9958591e48195b99195960621b6044820152606401610736565b600282526001600160a01b03831660a083015260408201516125289083612962565b600060076000846060015160006002811061254557612545614972565b60200201516001600160a01b03166001600160a01b03168152602001908152602001600020549050600060076000856060015160016002811061258a5761258a614972565b60200201516001600160a01b03166001600160a01b031681526020019081526020016000205490506000600a83815481106125c7576125c7614972565b906000526020600020906005020160040160006101000a81548160ff0219169083151502179055506019600a838154811061260457612604614972565b906000526020600020906005020160030181905550600a80838154811061262d5761262d614972565b9060005260206000209060050201600201819055506000600a828154811061265757612657614972565b906000526020600020906005020160040160006101000a81548160ff0219169083151502179055506019600a828154811061269457612694614972565b906000526020600020906005020160030181905550600a8082815481106126bd576126bd614972565b60009182526020822060059190910201600201919091556060850151516001600160a01b038781169116146126f757606085015151612701565b6060850151602001515b9050806001600160a01b0316866001600160a01b03167fae6e5eafb6cd1cb4b139e7a0b9140aa182ee7d50e99f50d660156f79212acbc0876040015160405161274a919061427e565b60405180910390a35092949350505050565b6127876040518060800160405280606081526020016000815260200160008152602001600081525090565b6000612794600a336131b2565b905060006127a382600a614cec565b90506000606442336040516020016127d292919091825260601b6001600160601b031916602082015260340190565b6040516020818303038152906040528051906020012060001c6127f59190614d15565b9050612802600682614d29565b90508060ff1660000361281d578061281981614d4b565b9150505b6040805160808101825286815260ff8316602082015290810184905260608101839052600b805460018101825560009190915281518290600483027f0175b7a638427703f0dbe7bb9bbf987a2551717b34e79f33b5b1008d1fa01db9019081906128879082614a21565b5060208201518160010155604082015181600201556060820151816003015550508060086000336001600160a01b03166001600160a01b03168152602001908152602001600020819055506128fd338460ff1660016040518060400160405280600381526020016203078360ec1b81525061322b565b6006805490600061290d83614b44565b90915550506040805160ff851681526020810187905290810185905233907fca8ab07e9ed17d119729fc652dd24df9d8430ca862dda4631925b5b4b99da3629060600160405180910390a25095945050505050565b61296b82610b1d565b6129ae5760405162461bcd60e51b815260206004820152601460248201527310985d1d1b1948191bd95cdb89dd08195e1a5cdd60621b6044820152606401610736565b80600c6009846040516129c19190614988565b908152602001604051809103902054815481106129e0576129e0614972565b6000918252602090912082516007909202018054909190829060ff19166001836002811115612a1157612a116142a4565b02179055506020820151600182015560408201516002820190612a349082614a21565b506060820151612a4a9060038301906002613edc565b506080820151612a609060058301906002613f34565b5060a09190910151600690910180546001600160a01b0319166001600160a01b039092169190911790555050565b816001600160a01b0316836001600160a01b031603612b015760405162461bcd60e51b815260206004820152602960248201527f455243313135353a2073657474696e6720617070726f76616c20737461747573604482015268103337b91039b2b63360b91b6064820152608401610736565b6001600160a01b03838116600081815260016020908152604080832094871680845294825291829020805460ff191686151590811790915591519182527f17307eab39ab6107e8899845ad3d59bd9653f200f220920489ca2b5937696c31910160405180910390a3505050565b8160ff1660011480612b8357508160ff166002145b612bcf5760405162461bcd60e51b815260206004820152601f60248201527f43686f6963652073686f756c64206265206569746865722031206f72203221006044820152606401610736565b8160ff16600114612be1576001612bf3565b6003612bec336110d3565b6040015110155b612c4a5760405162461bcd60e51b815260206004820152602260248201527f4d616e61206e6f742073756666696369656e7420666f722061747461636b696e604482015261672160f01b6064820152608401610736565b81600c600983604051612c5d9190614988565b90815260200160405180910390205481548110612c7c57612c7c614972565b90600052602060002090600702016005018460028110612c9e57612c9e614972565b602091828204019190066101000a81548160ff021916908360ff160217905550505050565b6000612cce82610b4d565b6060810151519091506001600160a01b0316331480612cfd57506060810151602001516001600160a01b031633145b612d5d5760405162461bcd60e51b815260206004820152602b60248201527f4f6e6c7920706c617965727320696e207468697320626174746c652063616e2060448201526a6d616b652061206d6f766560a81b6064820152608401610736565b60808101515160ff1615801590612d7e575060808101516020015160ff1615155b612dd45760405162461bcd60e51b815260206004820152602160248201527f506c6179657273207374696c6c206e65656420746f206d616b652061206d6f766044820152606560f81b6064820152608401610736565b6118ba81613345565b606081600003612e045750506040805180820190915260018152600360fc1b602082015290565b8160005b8115612e2e5780612e1881614b44565b9150612e279050600a83614d6a565b9150612e08565b6000816001600160401b03811115612e4857612e48614161565b6040519080825280601f01601f191660200182016040528015612e72576020820181803683370190505b509050815b8515612eff57612e88600182614cec565b90506000612e97600a88614d6a565b612ea290600a614d7e565b612eac9088614cec565b612eb7906030614d9d565b905060008160f81b905080848481518110612ed457612ed4614972565b60200101906001600160f81b031916908160001a905350612ef6600a89614d6a565b97505050612e77565b50949350505050565b6001600160a01b038416612f2e5760405162461bcd60e51b815260040161073690614c1c565b336000612f3a85613c1a565b90506000612f4785613c1a565b9050612f57838989858589613040565b6000868152602081815260408083206001600160a01b038c16845290915290205485811015612f985760405162461bcd60e51b815260040161073690614c61565b6000878152602081815260408083206001600160a01b038d8116855292528083208985039055908a16825281208054889290612fd5908490614cab565b909155505060408051888152602081018890526001600160a01b03808b16928c821692918816917fc3d58168c5ae7397731d063d5bbf3d657854427343f4c083240f7aacaa2d0f62910160405180910390a4613035848a8a8a8a8a613c65565b505050505050505050565b61244b868686868686613d20565b6001600160a01b0384163b1561244b5760405163bc197c8160e01b81526001600160a01b0385169063bc197c81906130929089908990889088908890600401614db6565b6020604051808303816000875af19250505080156130cd575060408051601f3d908101601f191682019092526130ca91810190614e14565b60015b613179576130d9614e31565b806308c379a00361311257506130ed614e4d565b806130f85750613114565b8060405162461bcd60e51b8152600401610736919061427e565b505b60405162461bcd60e51b815260206004820152603460248201527f455243313135353a207472616e7366657220746f206e6f6e2d455243313135356044820152732932b1b2b4bb32b91034b6b83632b6b2b73a32b960611b6064820152608401610736565b6001600160e01b0319811663bc197c8160e01b146131a95760405162461bcd60e51b815260040161073690614ed6565b50505050505050565b6000804442846040516020016131e893929190928352602083019190915260601b6001600160601b031916604082015260540190565b60408051601f198184030181529190528051602090910120905061320c8482614d15565b91508160000361322457613221600285614d6a565b91505b5092915050565b6001600160a01b03841661328b5760405162461bcd60e51b815260206004820152602160248201527f455243313135353a206d696e7420746f20746865207a65726f206164647265736044820152607360f81b6064820152608401610736565b33600061329785613c1a565b905060006132a485613c1a565b90506132b583600089858589613040565b6000868152602081815260408083206001600160a01b038b168452909152812080548792906132e5908490614cab565b909155505060408051878152602081018790526001600160a01b03808a1692600092918716917fc3d58168c5ae7397731d063d5bbf3d657854427343f4c083240f7aacaa2d0f62910160405180910390a46131a983600089898989613c65565b60006040518060a0016040528060076000856060015160006002811061336d5761336d614972565b60200201516001600160a01b03166001600160a01b0316815260200190815260200160002054815260200183608001516000600281106133af576133af614972565b602002015160ff1681526020016133e084606001516000600281106133d6576133d6614972565b60200201516110d3565b60600151815260200161340d846060015160006002811061340357613403614972565b60200201516109a3565b604001518152602001613430846060015160006002811061340357613403614972565b60600151815250905060006040518060a0016040528060076000866060015160016002811061346157613461614972565b60200201516001600160a01b03166001600160a01b0316815260200190815260200160002054815260200184608001516001600281106134a3576134a3614972565b602002015160ff1681526020016134ca85606001516001600281106133d6576133d6614972565b6060015181526020016134ed856060015160016002811061340357613403614972565b604001518152602001613510856060015160016002811061340357613403614972565b606001519052604080518082019091526000808252602080830191909152840151919250906001148015613548575081602001516001145b1561369f5781604001518360600151106135795760608401516135739060005b6020020151856124a5565b506139ba565b8260400151826060015110613598576060840151613573906001613568565b8160600151600a8460000151815481106135b4576135b4614972565b906000526020600020906005020160030160008282546135d49190614cec565b909155505060608301518251600a805490919081106135f5576135f5614972565b906000526020600020906005020160030160008282546136159190614cec565b90915550508251600a805460039290811061363257613632614972565b906000526020600020906005020160020160008282546136529190614cec565b90915550508151600a805460039290811061366f5761366f614972565b9060005260206000209060050201600201600082825461368f9190614cec565b90915550505060608301516139ba565b826020015160011480156136b7575081602001516002145b156137ee576000826080015183604001516136d29190614cab565b9050808460600151106136fc5760608501516136f69060005b6020020151866124a5565b50613573565b60008460600151846080015111156137195750604083015161373f565b60608501516137289083614cec565b6060870151602001516001600160a01b0316845290505b80600a85600001518154811061375757613757614972565b9060005260206000209060050201600301819055506003600a86600001518154811061378557613785614972565b906000526020600020906005020160020160008282546137a59190614cec565b90915550508351600a80546003929081106137c2576137c2614972565b906000526020600020906005020160020160008282546137e29190614cab565b909155505050506139ba565b82602001516002148015613806575081602001516001145b15613921576000836080015184604001516138219190614cab565b90508083606001511061383e5760608501516136f69060016136eb565b600083606001518560800151111561385b5750604084015161387e565b606084015161386a9083614cec565b6060870151516001600160a01b0316845290505b80600a86600001518154811061389657613896614972565b9060005260206000209060050201600301819055506003600a8660000151815481106138c4576138c4614972565b906000526020600020906005020160020160008282546138e49190614cab565b90915550508351600a805460039290811061390157613901614972565b906000526020600020906005020160020160008282546137e29190614cec565b82602001516002148015613939575081602001516002145b156139ba576003600a84600001518154811061395757613957614972565b906000526020600020906005020160020160008282546139779190614cab565b90915550508151600a805460039290811061399457613994614972565b906000526020600020906005020160020160008282546139b49190614cab565b90915550505b7fc6bf860cbc15f7020f73993a671f01bbb1831a8a7a12c126ca735eb632e75775816040516139e99190614f1e565b60405180910390a16080840180516000908190529051602001526040840151613a129085612962565b6000613a3a600a8660600151600060028110613a3057613a30614972565b60200201516131b2565b905080600b600860008860600151600060028110613a5a57613a5a614972565b60200201516001600160a01b03166001600160a01b031681526020019081526020016000205481548110613a9057613a90614972565b6000918252602090912060026004909202010155613aaf81600a614cec565b600b600860008860600151600060028110613acc57613acc614972565b60200201516001600160a01b03166001600160a01b031681526020019081526020016000205481548110613b0257613b02614972565b9060005260206000209060040201600301819055506000613b35600a8760600151600160028110613a3057613a30614972565b905080600b600860008960600151600160028110613b5557613b55614972565b60200201516001600160a01b03166001600160a01b031681526020019081526020016000205481548110613b8b57613b8b614972565b6000918252602090912060026004909202010155613baa81600a614cec565b600b600860008960600151600160028110613bc757613bc7614972565b60200201516001600160a01b03166001600160a01b031681526020019081526020016000205481548110613bfd57613bfd614972565b906000526020600020906004020160030181905550505050505050565b60408051600180825281830190925260609160009190602080830190803683370190505090508281600081518110613c5457613c54614972565b602090810291909101015292915050565b6001600160a01b0384163b1561244b5760405163f23a6e6160e01b81526001600160a01b0385169063f23a6e6190613ca99089908990889088908890600401614f2c565b6020604051808303816000875af1925050508015613ce4575060408051601f3d908101601f19168201909252613ce191810190614e14565b60015b613cf0576130d9614e31565b6001600160e01b0319811663f23a6e6160e01b146131a95760405162461bcd60e51b815260040161073690614ed6565b6001600160a01b038516613da75760005b8351811015613da557828181518110613d4c57613d4c614972565b602002602001015160046000868481518110613d6a57613d6a614972565b602002602001015181526020019081526020016000206000828254613d8f9190614cab565b90915550613d9e905081614b44565b9050613d31565b505b6001600160a01b03841661244b5760005b83518110156131a9576000848281518110613dd557613dd5614972565b602002602001015190506000848381518110613df357613df3614972565b6020026020010151905060006004600084815260200190815260200160002054905081811015613e765760405162461bcd60e51b815260206004820152602860248201527f455243313135353a206275726e20616d6f756e74206578636565647320746f74604482015267616c537570706c7960c01b6064820152608401610736565b60009283526004602052604090922091039055613e9281614b44565b9050613db8565b6040805160c0810190915280600081526000602082015260606040820181905201613ec2613fc2565b8152602001613ecf613fc2565b8152600060209091015290565b8260028101928215613f24579160200282015b82811115613f2457825182546001600160a01b0319166001600160a01b03909116178255602090920191600190910190613eef565b50613f30929150613fe0565b5090565b600183019183908215613f245791602002820160005b83821115613f8857835183826101000a81548160ff021916908360ff1602179055509260200192600101602081600001049283019260010302613f4a565b8015613fb55782816101000a81549060ff0219169055600101602081600001049283019260010302613f88565b5050613f30929150613fe0565b60405180604001604052806002906020820280368337509192915050565b5b80821115613f305760008155600101613fe1565b80356001600160a01b038116811461090a57600080fd5b6000806040838503121561401f57600080fd5b61402883613ff5565b946020939093013593505050565b60005b83811015614051578181015183820152602001614039565b50506000910152565b60008151808452614072816020860160208601614036565b601f01601f19169290920160200192915050565b600081516080845261409b608085018261405a565b90506020830151602085015260408301516040850152606083015160608501528091505092915050565b6000602080830181845280855180835260408601915060408160051b870101925083870160005b8281101561411a57603f19888603018452614108858351614086565b945092850192908501906001016140ec565b5092979650505050505050565b6001600160e01b0319811681146108d857600080fd5b60006020828403121561414f57600080fd5b813561415a81614127565b9392505050565b634e487b7160e01b600052604160045260246000fd5b601f8201601f191681016001600160401b038111828210171561419c5761419c614161565b6040525050565b600082601f8301126141b457600080fd5b81356001600160401b038111156141cd576141cd614161565b6040516141e4601f8301601f191660200182614177565b8181528460208386010111156141f957600080fd5b816020850160208301376000918101602001919091529392505050565b60006020828403121561422857600080fd5b81356001600160401b0381111561423e57600080fd5b613221848285016141a3565b60006020828403121561425c57600080fd5b61415a82613ff5565b60006020828403121561427757600080fd5b5035919050565b60208152600061415a602083018461405a565b60208152600061415a6020830184614086565b634e487b7160e01b600052602160045260246000fd5b600381106142d857634e487b7160e01b600052602160045260246000fd5b9052565b8060005b6002811015611e1e5781516001600160a01b03168452602093840193909101906001016142e0565b60006101006143188484516142ba565b6020808401518186015260408401518260408701526143398387018261405a565b925050606084015161434e60608701826142dc565b50608084015160a0860160005b600281101561437b57825160ff168252918301919083019060010161435b565b5050505060a08301516001600160a01b03811660e08601526110cb565b60208152600061415a6020830184614308565b60006001600160401b038211156143c4576143c4614161565b5060051b60200190565b600082601f8301126143df57600080fd5b813560206143ec826143ab565b6040516143f98282614177565b83815260059390931b850182019282810191508684111561441957600080fd5b8286015b84811015614434578035835291830191830161441d565b509695505050505050565b600080600080600060a0868803121561445757600080fd5b61446086613ff5565b945061446e60208701613ff5565b935060408601356001600160401b038082111561448a57600080fd5b61449689838a016143ce565b945060608801359150808211156144ac57600080fd5b6144b889838a016143ce565b935060808801359150808211156144ce57600080fd5b506144db888289016141a3565b9150509295509295909350565b600080604083850312156144fb57600080fd5b82356001600160401b038082111561451257600080fd5b818501915085601f83011261452657600080fd5b81356020614533826143ab565b6040516145408282614177565b83815260059390931b850182019282810191508984111561456057600080fd5b948201945b838610156145855761457686613ff5565b82529482019490820190614565565b9650508601359250508082111561459b57600080fd5b506145a8858286016143ce565b9150509250929050565b600081518084526020808501945080840160005b838110156145e2578151875295820195908201906001016145c6565b509495945050505050565b60208152600061415a60208301846145b2565b60018060a01b0381511682526000602082015160a0602085015261462760a085018261405a565b905060408301516040850152606083015160608501526080830151151560808501528091505092915050565b60208152600061415a6020830184614600565b6000602080830181845280855180835260408601915060408160051b870101925083870160005b8281101561411a57603f198886030184526146a9858351614308565b9450928501929085019060010161468d565b6146c581866142ba565b8360208201526080604082015260006146e1608083018561405a565b905060018060a01b038316606083015295945050505050565b6000806040838503121561470d57600080fd5b82356001600160401b038082111561472457600080fd5b614730868387016141a3565b9350602085013591508082111561474657600080fd5b506145a8858286016141a3565b6000806040838503121561476657600080fd5b61476f83613ff5565b91506020830135801515811461478457600080fd5b809150509250929050565b600080604083850312156147a257600080fd5b823560ff811681146147b357600080fd5b915060208301356001600160401b038111156147ce57600080fd5b6145a8858286016141a3565b6080815260006147ed608083018761405a565b6020830195909552506040810192909252606090910152919050565b6000806040838503121561481c57600080fd5b61482583613ff5565b915061483360208401613ff5565b90509250929050565b6000602080830181845280855180835260408601915060408160051b870101925083870160005b8281101561411a57603f1988860301845261487f858351614600565b94509285019290850190600101614863565b600080600080600060a086880312156148a957600080fd5b6148b286613ff5565b94506148c060208701613ff5565b9350604086013592506060860135915060808601356001600160401b038111156148e957600080fd5b6144db888289016141a3565b6001600160a01b038616815260a0602082018190526000906149199083018761405a565b6040830195909552506060810192909252151560809091015292915050565b600181811c9082168061494c57607f821691505b60208210810361496c57634e487b7160e01b600052602260045260246000fd5b50919050565b634e487b7160e01b600052603260045260246000fd5b6000825161499a818460208701614036565b9190910192915050565b6020808252601c908201527f506c6561736520526567697374657220506c6179657220466972737400000000604082015260600190565b601f8211156117fb57600081815260208120601f850160051c81016020861015614a025750805b601f850160051c820191505b8181101561244b57828155600101614a0e565b81516001600160401b03811115614a3a57614a3a614161565b614a4e81614a488454614938565b846149db565b602080601f831160018114614a835760008415614a6b5750858301515b600019600386901b1c1916600185901b17855561244b565b600085815260208120601f198616915b82811015614ab257888601518255948401946001909101908401614a93565b5085821015614ad05787850151600019600388901b60f8161c191681555b5050505050600190811b01905550565b6020808252602e908201527f455243313135353a2063616c6c6572206973206e6f7420746f6b656e206f776e60408201526d195c881bdc88185c1c1c9bdd995960921b606082015260800190565b634e487b7160e01b600052601160045260246000fd5b600060018201614b5657614b56614b2e565b5060010190565b60ff828116828216039081111561076257610762614b2e565b6000808454614b8481614938565b60018281168015614b9c5760018114614bb157614be0565b60ff1984168752821515830287019450614be0565b8860005260208060002060005b85811015614bd75781548a820152908401908201614bbe565b50505082870194505b50602f60f81b845286519250614bfc8382860160208a01614036565b64173539b7b760d91b939092019182019290925260060195945050505050565b60208082526025908201527f455243313135353a207472616e7366657220746f20746865207a65726f206164604082015264647265737360d81b606082015260800190565b6020808252602a908201527f455243313135353a20696e73756666696369656e742062616c616e636520666f60408201526939103a3930b739b332b960b11b606082015260800190565b8082018082111561076257610762614b2e565b604081526000614cd160408301856145b2565b8281036020840152614ce381856145b2565b95945050505050565b8181038181111561076257610762614b2e565b634e487b7160e01b600052601260045260246000fd5b600082614d2457614d24614cff565b500690565b600060ff831680614d3c57614d3c614cff565b8060ff84160691505092915050565b600060ff821660ff8103614d6157614d61614b2e565b60010192915050565b600082614d7957614d79614cff565b500490565b6000816000190483118215151615614d9857614d98614b2e565b500290565b60ff818116838216019081111561076257610762614b2e565b6001600160a01b0386811682528516602082015260a060408201819052600090614de2908301866145b2565b8281036060840152614df481866145b2565b90508281036080840152614e08818561405a565b98975050505050505050565b600060208284031215614e2657600080fd5b815161415a81614127565b600060033d1115614e4a5760046000803e5060005160e01c5b90565b600060443d1015614e5b5790565b6040516003193d81016004833e81513d6001600160401b038160248401118184111715614e8a57505050505090565b8285019150815181811115614ea25750505050505090565b843d8701016020828501011115614ebc5750505050505090565b614ecb60208286010187614177565b509095945050505050565b60208082526028908201527f455243313135353a204552433131353552656365697665722072656a656374656040820152676420746f6b656e7360c01b606082015260800190565b6040810161076282846142dc565b6001600160a01b03868116825285166020820152604081018490526060810183905260a060808201819052600090614f669083018461405a565b97965050505050505056fea26469706673582212205d9a9e79b9d548b28b51c7d6af8aad4846d47bc0ae1a602b5f9de11b12b02b8e64736f6c63430008100033",
  "linkReferences": {},
  "deployedLinkReferences": {}
}